{
  "_format": "hh-sol-artifact-1",
  "contractName": "ShapesNFT",
  "sourceName": "contracts/ShapesNFT.sol",
  "abi": [
    {
      "inputs": [
        {
          "internalType": "string",
          "name": "_contentId",
          "type": "string"
        }
      ],
      "stateMutability": "nonpayable",
      "type": "constructor"
    },
    {
      "anonymous": false,
      "inputs": [
        {
          "indexed": true,
          "internalType": "address",
          "name": "owner",
          "type": "address"
        },
        {
          "indexed": true,
          "internalType": "address",
          "name": "approved",
          "type": "address"
        },
        {
          "indexed": true,
          "internalType": "uint256",
          "name": "tokenId",
          "type": "uint256"
        }
      ],
      "name": "Approval",
      "type": "event"
    },
    {
      "anonymous": false,
      "inputs": [
        {
          "indexed": true,
          "internalType": "address",
          "name": "owner",
          "type": "address"
        },
        {
          "indexed": true,
          "internalType": "address",
          "name": "operator",
          "type": "address"
        },
        {
          "indexed": false,
          "internalType": "bool",
          "name": "approved",
          "type": "bool"
        }
      ],
      "name": "ApprovalForAll",
      "type": "event"
    },
    {
      "anonymous": false,
      "inputs": [
        {
          "indexed": false,
          "internalType": "address",
          "name": "sender",
          "type": "address"
        },
        {
          "indexed": false,
          "internalType": "uint256",
          "name": "tokenId",
          "type": "uint256"
        }
      ],
      "name": "NewNFTMinted",
      "type": "event"
    },
    {
      "anonymous": false,
      "inputs": [
        {
          "indexed": true,
          "internalType": "address",
          "name": "previousOwner",
          "type": "address"
        },
        {
          "indexed": true,
          "internalType": "address",
          "name": "newOwner",
          "type": "address"
        }
      ],
      "name": "OwnershipTransferred",
      "type": "event"
    },
    {
      "anonymous": false,
      "inputs": [
        {
          "indexed": true,
          "internalType": "address",
          "name": "from",
          "type": "address"
        },
        {
          "indexed": true,
          "internalType": "address",
          "name": "to",
          "type": "address"
        },
        {
          "indexed": true,
          "internalType": "uint256",
          "name": "tokenId",
          "type": "uint256"
        }
      ],
      "name": "Transfer",
      "type": "event"
    },
    {
      "inputs": [
        {
          "internalType": "address",
          "name": "to",
          "type": "address"
        },
        {
          "internalType": "uint256",
          "name": "tokenId",
          "type": "uint256"
        }
      ],
      "name": "approve",
      "outputs": [],
      "stateMutability": "nonpayable",
      "type": "function"
    },
    {
      "inputs": [
        {
          "internalType": "address",
          "name": "owner",
          "type": "address"
        }
      ],
      "name": "balanceOf",
      "outputs": [
        {
          "internalType": "uint256",
          "name": "",
          "type": "uint256"
        }
      ],
      "stateMutability": "view",
      "type": "function"
    },
    {
      "inputs": [],
      "name": "contentId",
      "outputs": [
        {
          "internalType": "string",
          "name": "",
          "type": "string"
        }
      ],
      "stateMutability": "view",
      "type": "function"
    },
    {
      "inputs": [],
      "name": "count",
      "outputs": [
        {
          "internalType": "uint256",
          "name": "",
          "type": "uint256"
        }
      ],
      "stateMutability": "view",
      "type": "function"
    },
    {
      "inputs": [
        {
          "internalType": "uint256",
          "name": "tokenId",
          "type": "uint256"
        }
      ],
      "name": "getApproved",
      "outputs": [
        {
          "internalType": "address",
          "name": "",
          "type": "address"
        }
      ],
      "stateMutability": "view",
      "type": "function"
    },
    {
      "inputs": [
        {
          "internalType": "address",
          "name": "owner",
          "type": "address"
        },
        {
          "internalType": "address",
          "name": "operator",
          "type": "address"
        }
      ],
      "name": "isApprovedForAll",
      "outputs": [
        {
          "internalType": "bool",
          "name": "",
          "type": "bool"
        }
      ],
      "stateMutability": "view",
      "type": "function"
    },
    {
      "inputs": [],
      "name": "name",
      "outputs": [
        {
          "internalType": "string",
          "name": "",
          "type": "string"
        }
      ],
      "stateMutability": "view",
      "type": "function"
    },
    {
      "inputs": [],
      "name": "owner",
      "outputs": [
        {
          "internalType": "address",
          "name": "",
          "type": "address"
        }
      ],
      "stateMutability": "view",
      "type": "function"
    },
    {
      "inputs": [
        {
          "internalType": "uint256",
          "name": "tokenId",
          "type": "uint256"
        }
      ],
      "name": "ownerOf",
      "outputs": [
        {
          "internalType": "address",
          "name": "",
          "type": "address"
        }
      ],
      "stateMutability": "view",
      "type": "function"
    },
    {
      "inputs": [],
      "name": "payToMint",
      "outputs": [
        {
          "internalType": "uint256",
          "name": "",
          "type": "uint256"
        }
      ],
      "stateMutability": "payable",
      "type": "function"
    },
    {
      "inputs": [],
      "name": "renounceOwnership",
      "outputs": [],
      "stateMutability": "nonpayable",
      "type": "function"
    },
    {
      "inputs": [
        {
          "internalType": "address",
          "name": "to",
          "type": "address"
        },
        {
          "internalType": "string",
          "name": "uri",
          "type": "string"
        }
      ],
      "name": "safeMint",
      "outputs": [],
      "stateMutability": "nonpayable",
      "type": "function"
    },
    {
      "inputs": [
        {
          "internalType": "address",
          "name": "from",
          "type": "address"
        },
        {
          "internalType": "address",
          "name": "to",
          "type": "address"
        },
        {
          "internalType": "uint256",
          "name": "tokenId",
          "type": "uint256"
        }
      ],
      "name": "safeTransferFrom",
      "outputs": [],
      "stateMutability": "nonpayable",
      "type": "function"
    },
    {
      "inputs": [
        {
          "internalType": "address",
          "name": "from",
          "type": "address"
        },
        {
          "internalType": "address",
          "name": "to",
          "type": "address"
        },
        {
          "internalType": "uint256",
          "name": "tokenId",
          "type": "uint256"
        },
        {
          "internalType": "bytes",
          "name": "_data",
          "type": "bytes"
        }
      ],
      "name": "safeTransferFrom",
      "outputs": [],
      "stateMutability": "nonpayable",
      "type": "function"
    },
    {
      "inputs": [
        {
          "internalType": "address",
          "name": "operator",
          "type": "address"
        },
        {
          "internalType": "bool",
          "name": "approved",
          "type": "bool"
        }
      ],
      "name": "setApprovalForAll",
      "outputs": [],
      "stateMutability": "nonpayable",
      "type": "function"
    },
    {
      "inputs": [
        {
          "internalType": "bytes4",
          "name": "interfaceId",
          "type": "bytes4"
        }
      ],
      "name": "supportsInterface",
      "outputs": [
        {
          "internalType": "bool",
          "name": "",
          "type": "bool"
        }
      ],
      "stateMutability": "view",
      "type": "function"
    },
    {
      "inputs": [],
      "name": "symbol",
      "outputs": [
        {
          "internalType": "string",
          "name": "",
          "type": "string"
        }
      ],
      "stateMutability": "view",
      "type": "function"
    },
    {
      "inputs": [
        {
          "internalType": "uint256",
          "name": "tokenId",
          "type": "uint256"
        }
      ],
      "name": "tokenURI",
      "outputs": [
        {
          "internalType": "string",
          "name": "",
          "type": "string"
        }
      ],
      "stateMutability": "view",
      "type": "function"
    },
    {
      "inputs": [
        {
          "internalType": "address",
          "name": "from",
          "type": "address"
        },
        {
          "internalType": "address",
          "name": "to",
          "type": "address"
        },
        {
          "internalType": "uint256",
          "name": "tokenId",
          "type": "uint256"
        }
      ],
      "name": "transferFrom",
      "outputs": [],
      "stateMutability": "nonpayable",
      "type": "function"
    },
    {
      "inputs": [
        {
          "internalType": "address",
          "name": "newOwner",
          "type": "address"
        }
      ],
      "name": "transferOwnership",
      "outputs": [],
      "stateMutability": "nonpayable",
      "type": "function"
    },
    {
      "inputs": [
        {
          "internalType": "string",
          "name": "_newContentId",
          "type": "string"
        }
      ],
      "name": "updateContentId",
      "outputs": [],
      "stateMutability": "nonpayable",
      "type": "function"
    }
  ],
  "bytecode": "0x608060405260405180602001604052806000815250600990805190602001906200002b9291906200020d565b503480156200003957600080fd5b5060405162003c9438038062003c9483398181016040528101906200005f91906200045a565b6040518060400160405280600981526020017f5368617065734e465400000000000000000000000000000000000000000000008152506040518060400160405280600381526020017f53485000000000000000000000000000000000000000000000000000000000008152508160009080519060200190620000e39291906200020d565b508060019080519060200190620000fc9291906200020d565b5050506200011f620001136200013f60201b60201c565b6200014760201b60201c565b8060099080519060200190620001379291906200020d565b50506200050f565b600033905090565b6000600760009054906101000a900473ffffffffffffffffffffffffffffffffffffffff16905081600760006101000a81548173ffffffffffffffffffffffffffffffffffffffff021916908373ffffffffffffffffffffffffffffffffffffffff1602179055508173ffffffffffffffffffffffffffffffffffffffff168173ffffffffffffffffffffffffffffffffffffffff167f8be0079c531659141344cd1fd0a4f28419497f9722a3daafe3b4186f6b6457e060405160405180910390a35050565b8280546200021b90620004da565b90600052602060002090601f0160209004810192826200023f57600085556200028b565b82601f106200025a57805160ff19168380011785556200028b565b828001600101855582156200028b579182015b828111156200028a5782518255916020019190600101906200026d565b5b5090506200029a91906200029e565b5090565b5b80821115620002b95760008160009055506001016200029f565b5090565b6000604051905090565b600080fd5b600080fd5b600080fd5b600080fd5b6000601f19601f8301169050919050565b7f4e487b7100000000000000000000000000000000000000000000000000000000600052604160045260246000fd5b6200032682620002db565b810181811067ffffffffffffffff82111715620003485762000347620002ec565b5b80604052505050565b60006200035d620002bd565b90506200036b82826200031b565b919050565b600067ffffffffffffffff8211156200038e576200038d620002ec565b5b6200039982620002db565b9050602081019050919050565b60005b83811015620003c6578082015181840152602081019050620003a9565b83811115620003d6576000848401525b50505050565b6000620003f3620003ed8462000370565b62000351565b905082815260208101848484011115620004125762000411620002d6565b5b6200041f848285620003a6565b509392505050565b600082601f8301126200043f576200043e620002d1565b5b815162000451848260208601620003dc565b91505092915050565b600060208284031215620004735762000472620002c7565b5b600082015167ffffffffffffffff811115620004945762000493620002cc565b5b620004a28482850162000427565b91505092915050565b7f4e487b7100000000000000000000000000000000000000000000000000000000600052602260045260246000fd5b60006002820490506001821680620004f357607f821691505b602082108103620005095762000508620004ab565b5b50919050565b613775806200051f6000396000f3fe60806040526004361061012a5760003560e01c8063715018a6116100ab578063b88d4fde1161006f578063b88d4fde146103d1578063c87b56dd146103fa578063d204c45e14610437578063d97aa97714610460578063e985e9c51461048b578063f2fde38b146104c85761012a565b8063715018a6146103125780638da5cb5b1461032957806395d89b4114610354578063a22cb4651461037f578063aed677f8146103a85761012a565b806323b872dd116100f257806323b872dd1461022857806342842e0e14610251578063509c71801461027a5780636352211e1461029857806370a08231146102d55761012a565b806301ffc9a71461012f57806306661abd1461016c57806306fdde0314610197578063081812fc146101c2578063095ea7b3146101ff575b600080fd5b34801561013b57600080fd5b5061015660048036038101906101519190612105565b6104f1565b604051610163919061214d565b60405180910390f35b34801561017857600080fd5b506101816105d3565b60405161018e9190612181565b60405180910390f35b3480156101a357600080fd5b506101ac6105e4565b6040516101b99190612235565b60405180910390f35b3480156101ce57600080fd5b506101e960048036038101906101e49190612283565b610676565b6040516101f691906122f1565b60405180910390f35b34801561020b57600080fd5b5061022660048036038101906102219190612338565b6106fb565b005b34801561023457600080fd5b5061024f600480360381019061024a9190612378565b610812565b005b34801561025d57600080fd5b5061027860048036038101906102739190612378565b610872565b005b610282610892565b60405161028f9190612181565b60405180910390f35b3480156102a457600080fd5b506102bf60048036038101906102ba9190612283565b6109c8565b6040516102cc91906122f1565b60405180910390f35b3480156102e157600080fd5b506102fc60048036038101906102f791906123cb565b610a79565b6040516103099190612181565b60405180910390f35b34801561031e57600080fd5b50610327610b30565b005b34801561033557600080fd5b5061033e610bb8565b60405161034b91906122f1565b60405180910390f35b34801561036057600080fd5b50610369610be2565b6040516103769190612235565b60405180910390f35b34801561038b57600080fd5b506103a660048036038101906103a19190612424565b610c74565b005b3480156103b457600080fd5b506103cf60048036038101906103ca9190612599565b610c8a565b005b3480156103dd57600080fd5b506103f860048036038101906103f39190612683565b610d20565b005b34801561040657600080fd5b50610421600480360381019061041c9190612283565b610d82565b60405161042e9190612235565b60405180910390f35b34801561044357600080fd5b5061045e60048036038101906104599190612706565b610d94565b005b34801561046c57600080fd5b50610475610e41565b6040516104829190612235565b60405180910390f35b34801561049757600080fd5b506104b260048036038101906104ad9190612762565b610ecf565b6040516104bf919061214d565b60405180910390f35b3480156104d457600080fd5b506104ef60048036038101906104ea91906123cb565b610f63565b005b60007f80ac58cd000000000000000000000000000000000000000000000000000000007bffffffffffffffffffffffffffffffffffffffffffffffffffffffff1916827bffffffffffffffffffffffffffffffffffffffffffffffffffffffff191614806105bc57507f5b5e139f000000000000000000000000000000000000000000000000000000007bffffffffffffffffffffffffffffffffffffffffffffffffffffffff1916827bffffffffffffffffffffffffffffffffffffffffffffffffffffffff1916145b806105cc57506105cb8261105a565b5b9050919050565b60006105df60086110c4565b905090565b6060600080546105f3906127d1565b80601f016020809104026020016040519081016040528092919081815260200182805461061f906127d1565b801561066c5780601f106106415761010080835404028352916020019161066c565b820191906000526020600020905b81548152906001019060200180831161064f57829003601f168201915b5050505050905090565b6000610681826110d2565b6106c0576040517f08c379a00000000000000000000000000000000000000000000000000000000081526004016106b790612874565b60405180910390fd5b6004600083815260200190815260200160002060009054906101000a900473ffffffffffffffffffffffffffffffffffffffff169050919050565b6000610706826109c8565b90508073ffffffffffffffffffffffffffffffffffffffff168373ffffffffffffffffffffffffffffffffffffffff1603610776576040517f08c379a000000000000000000000000000000000000000000000000000000000815260040161076d90612906565b60405180910390fd5b8073ffffffffffffffffffffffffffffffffffffffff1661079561113e565b73ffffffffffffffffffffffffffffffffffffffff1614806107c457506107c3816107be61113e565b610ecf565b5b610803576040517f08c379a00000000000000000000000000000000000000000000000000000000081526004016107fa90612998565b60405180910390fd5b61080d8383611146565b505050565b61082361081d61113e565b826111ff565b610862576040517f08c379a000000000000000000000000000000000000000000000000000000000815260040161085990612a2a565b60405180910390fd5b61086d8383836112dd565b505050565b61088d83838360405180602001604052806000815250610d20565b505050565b60008061089f60086110c4565b905066b1a2bc2ec500003410156108eb576040517f08c379a00000000000000000000000000000000000000000000000000000000081526004016108e290612a96565b60405180910390fd5b6032811061092e576040517f08c379a000000000000000000000000000000000000000000000000000000000815260040161092590612b28565b60405180910390fd5b6109386008611543565b6000600961095160018461094c9190612b77565b611559565b604051602001610962929190612d35565b604051602081830303815290604052905061097d33836116b9565b61098782826116d7565b7f1c05098ed1ff38e6238d2b1b04b2c7977d4c94ce651bda6473f9dba8dbf01da033836040516109b8929190612d6f565b60405180910390a1819250505090565b6000806002600084815260200190815260200160002060009054906101000a900473ffffffffffffffffffffffffffffffffffffffff169050600073ffffffffffffffffffffffffffffffffffffffff168173ffffffffffffffffffffffffffffffffffffffff1603610a70576040517f08c379a0000000000000000000000000000000000000000000000000000000008152600401610a6790612e0a565b60405180910390fd5b80915050919050565b60008073ffffffffffffffffffffffffffffffffffffffff168273ffffffffffffffffffffffffffffffffffffffff1603610ae9576040517f08c379a0000000000000000000000000000000000000000000000000000000008152600401610ae090612e9c565b60405180910390fd5b600360008373ffffffffffffffffffffffffffffffffffffffff1673ffffffffffffffffffffffffffffffffffffffff168152602001908152602001600020549050919050565b610b3861113e565b73ffffffffffffffffffffffffffffffffffffffff16610b56610bb8565b73ffffffffffffffffffffffffffffffffffffffff1614610bac576040517f08c379a0000000000000000000000000000000000000000000000000000000008152600401610ba390612f08565b60405180910390fd5b610bb6600061174b565b565b6000600760009054906101000a900473ffffffffffffffffffffffffffffffffffffffff16905090565b606060018054610bf1906127d1565b80601f0160208091040260200160405190810160405280929190818152602001828054610c1d906127d1565b8015610c6a5780601f10610c3f57610100808354040283529160200191610c6a565b820191906000526020600020905b815481529060010190602001808311610c4d57829003601f168201915b5050505050905090565b610c86610c7f61113e565b8383611811565b5050565b610c9261113e565b73ffffffffffffffffffffffffffffffffffffffff16610cb0610bb8565b73ffffffffffffffffffffffffffffffffffffffff1614610d06576040517f08c379a0000000000000000000000000000000000000000000000000000000008152600401610cfd90612f08565b60405180910390fd5b8060099080519060200190610d1c929190611ff6565b5050565b610d31610d2b61113e565b836111ff565b610d70576040517f08c379a0000000000000000000000000000000000000000000000000000000008152600401610d6790612a2a565b60405180910390fd5b610d7c8484848461197d565b50505050565b6060610d8d826119d9565b9050919050565b610d9c61113e565b73ffffffffffffffffffffffffffffffffffffffff16610dba610bb8565b73ffffffffffffffffffffffffffffffffffffffff1614610e10576040517f08c379a0000000000000000000000000000000000000000000000000000000008152600401610e0790612f08565b60405180910390fd5b6000610e1c60086110c4565b9050610e286008611543565b610e3283826116b9565b610e3c81836116d7565b505050565b60098054610e4e906127d1565b80601f0160208091040260200160405190810160405280929190818152602001828054610e7a906127d1565b8015610ec75780601f10610e9c57610100808354040283529160200191610ec7565b820191906000526020600020905b815481529060010190602001808311610eaa57829003601f168201915b505050505081565b6000600560008473ffffffffffffffffffffffffffffffffffffffff1673ffffffffffffffffffffffffffffffffffffffff16815260200190815260200160002060008373ffffffffffffffffffffffffffffffffffffffff1673ffffffffffffffffffffffffffffffffffffffff16815260200190815260200160002060009054906101000a900460ff16905092915050565b610f6b61113e565b73ffffffffffffffffffffffffffffffffffffffff16610f89610bb8565b73ffffffffffffffffffffffffffffffffffffffff1614610fdf576040517f08c379a0000000000000000000000000000000000000000000000000000000008152600401610fd690612f08565b60405180910390fd5b600073ffffffffffffffffffffffffffffffffffffffff168173ffffffffffffffffffffffffffffffffffffffff160361104e576040517f08c379a000000000000000000000000000000000000000000000000000000000815260040161104590612f9a565b60405180910390fd5b6110578161174b565b50565b60007f01ffc9a7000000000000000000000000000000000000000000000000000000007bffffffffffffffffffffffffffffffffffffffffffffffffffffffff1916827bffffffffffffffffffffffffffffffffffffffffffffffffffffffff1916149050919050565b600081600001549050919050565b60008073ffffffffffffffffffffffffffffffffffffffff166002600084815260200190815260200160002060009054906101000a900473ffffffffffffffffffffffffffffffffffffffff1673ffffffffffffffffffffffffffffffffffffffff1614159050919050565b600033905090565b816004600083815260200190815260200160002060006101000a81548173ffffffffffffffffffffffffffffffffffffffff021916908373ffffffffffffffffffffffffffffffffffffffff160217905550808273ffffffffffffffffffffffffffffffffffffffff166111b9836109c8565b73ffffffffffffffffffffffffffffffffffffffff167f8c5be1e5ebec7d5bd14f71427d1e84f3dd0314c0f7b2291e5b200ac8c7c3b92560405160405180910390a45050565b600061120a826110d2565b611249576040517f08c379a00000000000000000000000000000000000000000000000000000000081526004016112409061302c565b60405180910390fd5b6000611254836109c8565b90508073ffffffffffffffffffffffffffffffffffffffff168473ffffffffffffffffffffffffffffffffffffffff1614806112c357508373ffffffffffffffffffffffffffffffffffffffff166112ab84610676565b73ffffffffffffffffffffffffffffffffffffffff16145b806112d457506112d38185610ecf565b5b91505092915050565b8273ffffffffffffffffffffffffffffffffffffffff166112fd826109c8565b73ffffffffffffffffffffffffffffffffffffffff1614611353576040517f08c379a000000000000000000000000000000000000000000000000000000000815260040161134a906130be565b60405180910390fd5b600073ffffffffffffffffffffffffffffffffffffffff168273ffffffffffffffffffffffffffffffffffffffff16036113c2576040517f08c379a00000000000000000000000000000000000000000000000000000000081526004016113b990613150565b60405180910390fd5b6113cd838383611b2a565b6113d8600082611146565b6001600360008573ffffffffffffffffffffffffffffffffffffffff1673ffffffffffffffffffffffffffffffffffffffff16815260200190815260200160002060008282546114289190613170565b925050819055506001600360008473ffffffffffffffffffffffffffffffffffffffff1673ffffffffffffffffffffffffffffffffffffffff168152602001908152602001600020600082825461147f9190612b77565b92505081905550816002600083815260200190815260200160002060006101000a81548173ffffffffffffffffffffffffffffffffffffffff021916908373ffffffffffffffffffffffffffffffffffffffff160217905550808273ffffffffffffffffffffffffffffffffffffffff168473ffffffffffffffffffffffffffffffffffffffff167fddf252ad1be2c89b69c2b068fc378daa952ba7f163c4a11628f55a4df523b3ef60405160405180910390a461153e838383611b2f565b505050565b6001816000016000828254019250508190555050565b6060600082036115a0576040518060400160405280600181526020017f300000000000000000000000000000000000000000000000000000000000000081525090506116b4565b600082905060005b600082146115d25780806115bb906131a4565b915050600a826115cb919061321b565b91506115a8565b60008167ffffffffffffffff8111156115ee576115ed61246e565b5b6040519080825280601f01601f1916602001820160405280156116205781602001600182028036833780820191505090505b5090505b600085146116ad576001826116399190613170565b9150600a85611648919061324c565b60306116549190612b77565b60f81b81838151811061166a5761166961327d565b5b60200101907effffffffffffffffffffffffffffffffffffffffffffffffffffffffffffff1916908160001a905350600a856116a6919061321b565b9450611624565b8093505050505b919050565b6116d3828260405180602001604052806000815250611b34565b5050565b6116e0826110d2565b61171f576040517f08c379a00000000000000000000000000000000000000000000000000000000081526004016117169061331e565b60405180910390fd5b80600660008481526020019081526020016000209080519060200190611746929190611ff6565b505050565b6000600760009054906101000a900473ffffffffffffffffffffffffffffffffffffffff16905081600760006101000a81548173ffffffffffffffffffffffffffffffffffffffff021916908373ffffffffffffffffffffffffffffffffffffffff1602179055508173ffffffffffffffffffffffffffffffffffffffff168173ffffffffffffffffffffffffffffffffffffffff167f8be0079c531659141344cd1fd0a4f28419497f9722a3daafe3b4186f6b6457e060405160405180910390a35050565b8173ffffffffffffffffffffffffffffffffffffffff168373ffffffffffffffffffffffffffffffffffffffff160361187f576040517f08c379a00000000000000000000000000000000000000000000000000000000081526004016118769061338a565b60405180910390fd5b80600560008573ffffffffffffffffffffffffffffffffffffffff1673ffffffffffffffffffffffffffffffffffffffff16815260200190815260200160002060008473ffffffffffffffffffffffffffffffffffffffff1673ffffffffffffffffffffffffffffffffffffffff16815260200190815260200160002060006101000a81548160ff0219169083151502179055508173ffffffffffffffffffffffffffffffffffffffff168373ffffffffffffffffffffffffffffffffffffffff167f17307eab39ab6107e8899845ad3d59bd9653f200f220920489ca2b5937696c3183604051611970919061214d565b60405180910390a3505050565b6119888484846112dd565b61199484848484611b8f565b6119d3576040517f08c379a00000000000000000000000000000000000000000000000000000000081526004016119ca9061341c565b60405180910390fd5b50505050565b60606119e4826110d2565b611a23576040517f08c379a0000000000000000000000000000000000000000000000000000000008152600401611a1a906134ae565b60405180910390fd5b6000600660008481526020019081526020016000208054611a43906127d1565b80601f0160208091040260200160405190810160405280929190818152602001828054611a6f906127d1565b8015611abc5780601f10611a9157610100808354040283529160200191611abc565b820191906000526020600020905b815481529060010190602001808311611a9f57829003601f168201915b505050505090506000611acd611d16565b90506000815103611ae2578192505050611b25565b600082511115611b17578082604051602001611aff9291906134ce565b60405160208183030381529060405292505050611b25565b611b2084611d53565b925050505b919050565b505050565b505050565b611b3e8383611dfa565b611b4b6000848484611b8f565b611b8a576040517f08c379a0000000000000000000000000000000000000000000000000000000008152600401611b819061341c565b60405180910390fd5b505050565b6000611bb08473ffffffffffffffffffffffffffffffffffffffff16611fd3565b15611d09578373ffffffffffffffffffffffffffffffffffffffff1663150b7a02611bd961113e565b8786866040518563ffffffff1660e01b8152600401611bfb9493929190613547565b6020604051808303816000875af1925050508015611c3757506040513d601f19601f82011682018060405250810190611c3491906135a8565b60015b611cb9573d8060008114611c67576040519150601f19603f3d011682016040523d82523d6000602084013e611c6c565b606091505b506000815103611cb1576040517f08c379a0000000000000000000000000000000000000000000000000000000008152600401611ca89061341c565b60405180910390fd5b805181602001fd5b63150b7a0260e01b7bffffffffffffffffffffffffffffffffffffffffffffffffffffffff1916817bffffffffffffffffffffffffffffffffffffffffffffffffffffffff191614915050611d0e565b600190505b949350505050565b60606040518060400160405280600781526020017f697066733a2f2f00000000000000000000000000000000000000000000000000815250905090565b6060611d5e826110d2565b611d9d576040517f08c379a0000000000000000000000000000000000000000000000000000000008152600401611d9490613647565b60405180910390fd5b6000611da7611d16565b90506000815111611dc75760405180602001604052806000815250611df2565b80611dd184611559565b604051602001611de29291906134ce565b6040516020818303038152906040525b915050919050565b600073ffffffffffffffffffffffffffffffffffffffff168273ffffffffffffffffffffffffffffffffffffffff1603611e69576040517f08c379a0000000000000000000000000000000000000000000000000000000008152600401611e60906136b3565b60405180910390fd5b611e72816110d2565b15611eb2576040517f08c379a0000000000000000000000000000000000000000000000000000000008152600401611ea99061371f565b60405180910390fd5b611ebe60008383611b2a565b6001600360008473ffffffffffffffffffffffffffffffffffffffff1673ffffffffffffffffffffffffffffffffffffffff1681526020019081526020016000206000828254611f0e9190612b77565b92505081905550816002600083815260200190815260200160002060006101000a81548173ffffffffffffffffffffffffffffffffffffffff021916908373ffffffffffffffffffffffffffffffffffffffff160217905550808273ffffffffffffffffffffffffffffffffffffffff16600073ffffffffffffffffffffffffffffffffffffffff167fddf252ad1be2c89b69c2b068fc378daa952ba7f163c4a11628f55a4df523b3ef60405160405180910390a4611fcf60008383611b2f565b5050565b6000808273ffffffffffffffffffffffffffffffffffffffff163b119050919050565b828054612002906127d1565b90600052602060002090601f016020900481019282612024576000855561206b565b82601f1061203d57805160ff191683800117855561206b565b8280016001018555821561206b579182015b8281111561206a57825182559160200191906001019061204f565b5b509050612078919061207c565b5090565b5b8082111561209557600081600090555060010161207d565b5090565b6000604051905090565b600080fd5b600080fd5b60007fffffffff0000000000000000000000000000000000000000000000000000000082169050919050565b6120e2816120ad565b81146120ed57600080fd5b50565b6000813590506120ff816120d9565b92915050565b60006020828403121561211b5761211a6120a3565b5b6000612129848285016120f0565b91505092915050565b60008115159050919050565b61214781612132565b82525050565b6000602082019050612162600083018461213e565b92915050565b6000819050919050565b61217b81612168565b82525050565b60006020820190506121966000830184612172565b92915050565b600081519050919050565b600082825260208201905092915050565b60005b838110156121d65780820151818401526020810190506121bb565b838111156121e5576000848401525b50505050565b6000601f19601f8301169050919050565b60006122078261219c565b61221181856121a7565b93506122218185602086016121b8565b61222a816121eb565b840191505092915050565b6000602082019050818103600083015261224f81846121fc565b905092915050565b61226081612168565b811461226b57600080fd5b50565b60008135905061227d81612257565b92915050565b600060208284031215612299576122986120a3565b5b60006122a78482850161226e565b91505092915050565b600073ffffffffffffffffffffffffffffffffffffffff82169050919050565b60006122db826122b0565b9050919050565b6122eb816122d0565b82525050565b600060208201905061230660008301846122e2565b92915050565b612315816122d0565b811461232057600080fd5b50565b6000813590506123328161230c565b92915050565b6000806040838503121561234f5761234e6120a3565b5b600061235d85828601612323565b925050602061236e8582860161226e565b9150509250929050565b600080600060608486031215612391576123906120a3565b5b600061239f86828701612323565b93505060206123b086828701612323565b92505060406123c18682870161226e565b9150509250925092565b6000602082840312156123e1576123e06120a3565b5b60006123ef84828501612323565b91505092915050565b61240181612132565b811461240c57600080fd5b50565b60008135905061241e816123f8565b92915050565b6000806040838503121561243b5761243a6120a3565b5b600061244985828601612323565b925050602061245a8582860161240f565b9150509250929050565b600080fd5b600080fd5b7f4e487b7100000000000000000000000000000000000000000000000000000000600052604160045260246000fd5b6124a6826121eb565b810181811067ffffffffffffffff821117156124c5576124c461246e565b5b80604052505050565b60006124d8612099565b90506124e4828261249d565b919050565b600067ffffffffffffffff8211156125045761250361246e565b5b61250d826121eb565b9050602081019050919050565b82818337600083830152505050565b600061253c612537846124e9565b6124ce565b90508281526020810184848401111561255857612557612469565b5b61256384828561251a565b509392505050565b600082601f8301126125805761257f612464565b5b8135612590848260208601612529565b91505092915050565b6000602082840312156125af576125ae6120a3565b5b600082013567ffffffffffffffff8111156125cd576125cc6120a8565b5b6125d98482850161256b565b91505092915050565b600067ffffffffffffffff8211156125fd576125fc61246e565b5b612606826121eb565b9050602081019050919050565b6000612626612621846125e2565b6124ce565b90508281526020810184848401111561264257612641612469565b5b61264d84828561251a565b509392505050565b600082601f83011261266a57612669612464565b5b813561267a848260208601612613565b91505092915050565b6000806000806080858703121561269d5761269c6120a3565b5b60006126ab87828801612323565b94505060206126bc87828801612323565b93505060406126cd8782880161226e565b925050606085013567ffffffffffffffff8111156126ee576126ed6120a8565b5b6126fa87828801612655565b91505092959194509250565b6000806040838503121561271d5761271c6120a3565b5b600061272b85828601612323565b925050602083013567ffffffffffffffff81111561274c5761274b6120a8565b5b6127588582860161256b565b9150509250929050565b60008060408385031215612779576127786120a3565b5b600061278785828601612323565b925050602061279885828601612323565b9150509250929050565b7f4e487b7100000000000000000000000000000000000000000000000000000000600052602260045260246000fd5b600060028204905060018216806127e957607f821691505b6020821081036127fc576127fb6127a2565b5b50919050565b7f4552433732313a20617070726f76656420717565727920666f72206e6f6e657860008201527f697374656e7420746f6b656e0000000000000000000000000000000000000000602082015250565b600061285e602c836121a7565b915061286982612802565b604082019050919050565b6000602082019050818103600083015261288d81612851565b9050919050565b7f4552433732313a20617070726f76616c20746f2063757272656e74206f776e6560008201527f7200000000000000000000000000000000000000000000000000000000000000602082015250565b60006128f06021836121a7565b91506128fb82612894565b604082019050919050565b6000602082019050818103600083015261291f816128e3565b9050919050565b7f4552433732313a20617070726f76652063616c6c6572206973206e6f74206f7760008201527f6e6572206e6f7220617070726f76656420666f7220616c6c0000000000000000602082015250565b60006129826038836121a7565b915061298d82612926565b604082019050919050565b600060208201905081810360008301526129b181612975565b9050919050565b7f4552433732313a207472616e736665722063616c6c6572206973206e6f74206f60008201527f776e6572206e6f7220617070726f766564000000000000000000000000000000602082015250565b6000612a146031836121a7565b9150612a1f826129b8565b604082019050919050565b60006020820190508181036000830152612a4381612a07565b9050919050565b7f4e65656420746f20706179207570210000000000000000000000000000000000600082015250565b6000612a80600f836121a7565b9150612a8b82612a4a565b602082019050919050565b60006020820190508181036000830152612aaf81612a73565b9050919050565b7f416c6c203530204e465473206861766520616c7265616479206265656e206d6960008201527f6e74656400000000000000000000000000000000000000000000000000000000602082015250565b6000612b126024836121a7565b9150612b1d82612ab6565b604082019050919050565b60006020820190508181036000830152612b4181612b05565b9050919050565b7f4e487b7100000000000000000000000000000000000000000000000000000000600052601160045260246000fd5b6000612b8282612168565b9150612b8d83612168565b9250827fffffffffffffffffffffffffffffffffffffffffffffffffffffffffffffffff03821115612bc257612bc1612b48565b5b828201905092915050565b600081905092915050565b60008190508160005260206000209050919050565b60008154612bfa816127d1565b612c048186612bcd565b94506001821660008114612c1f5760018114612c3057612c63565b60ff19831686528186019350612c63565b612c3985612bd8565b60005b83811015612c5b57815481890152600182019150602081019050612c3c565b838801955050505b50505092915050565b7f2f00000000000000000000000000000000000000000000000000000000000000600082015250565b6000612ca2600183612bcd565b9150612cad82612c6c565b600182019050919050565b6000612cc38261219c565b612ccd8185612bcd565b9350612cdd8185602086016121b8565b80840191505092915050565b7f2e6a736f6e000000000000000000000000000000000000000000000000000000600082015250565b6000612d1f600583612bcd565b9150612d2a82612ce9565b600582019050919050565b6000612d418285612bed565b9150612d4c82612c95565b9150612d588284612cb8565b9150612d6382612d12565b91508190509392505050565b6000604082019050612d8460008301856122e2565b612d916020830184612172565b9392505050565b7f4552433732313a206f776e657220717565727920666f72206e6f6e657869737460008201527f656e7420746f6b656e0000000000000000000000000000000000000000000000602082015250565b6000612df46029836121a7565b9150612dff82612d98565b604082019050919050565b60006020820190508181036000830152612e2381612de7565b9050919050565b7f4552433732313a2062616c616e636520717565727920666f7220746865207a6560008201527f726f206164647265737300000000000000000000000000000000000000000000602082015250565b6000612e86602a836121a7565b9150612e9182612e2a565b604082019050919050565b60006020820190508181036000830152612eb581612e79565b9050919050565b7f4f776e61626c653a2063616c6c6572206973206e6f7420746865206f776e6572600082015250565b6000612ef26020836121a7565b9150612efd82612ebc565b602082019050919050565b60006020820190508181036000830152612f2181612ee5565b9050919050565b7f4f776e61626c653a206e6577206f776e657220697320746865207a65726f206160008201527f6464726573730000000000000000000000000000000000000000000000000000602082015250565b6000612f846026836121a7565b9150612f8f82612f28565b604082019050919050565b60006020820190508181036000830152612fb381612f77565b9050919050565b7f4552433732313a206f70657261746f7220717565727920666f72206e6f6e657860008201527f697374656e7420746f6b656e0000000000000000000000000000000000000000602082015250565b6000613016602c836121a7565b915061302182612fba565b604082019050919050565b6000602082019050818103600083015261304581613009565b9050919050565b7f4552433732313a207472616e736665722066726f6d20696e636f72726563742060008201527f6f776e6572000000000000000000000000000000000000000000000000000000602082015250565b60006130a86025836121a7565b91506130b38261304c565b604082019050919050565b600060208201905081810360008301526130d78161309b565b9050919050565b7f4552433732313a207472616e7366657220746f20746865207a65726f2061646460008201527f7265737300000000000000000000000000000000000000000000000000000000602082015250565b600061313a6024836121a7565b9150613145826130de565b604082019050919050565b600060208201905081810360008301526131698161312d565b9050919050565b600061317b82612168565b915061318683612168565b92508282101561319957613198612b48565b5b828203905092915050565b60006131af82612168565b91507fffffffffffffffffffffffffffffffffffffffffffffffffffffffffffffffff82036131e1576131e0612b48565b5b600182019050919050565b7f4e487b7100000000000000000000000000000000000000000000000000000000600052601260045260246000fd5b600061322682612168565b915061323183612168565b925082613241576132406131ec565b5b828204905092915050565b600061325782612168565b915061326283612168565b925082613272576132716131ec565b5b828206905092915050565b7f4e487b7100000000000000000000000000000000000000000000000000000000600052603260045260246000fd5b7f45524337323155524953746f726167653a2055524920736574206f66206e6f6e60008201527f6578697374656e7420746f6b656e000000000000000000000000000000000000602082015250565b6000613308602e836121a7565b9150613313826132ac565b604082019050919050565b60006020820190508181036000830152613337816132fb565b9050919050565b7f4552433732313a20617070726f766520746f2063616c6c657200000000000000600082015250565b60006133746019836121a7565b915061337f8261333e565b602082019050919050565b600060208201905081810360008301526133a381613367565b9050919050565b7f4552433732313a207472616e7366657220746f206e6f6e20455243373231526560008201527f63656976657220696d706c656d656e7465720000000000000000000000000000602082015250565b60006134066032836121a7565b9150613411826133aa565b604082019050919050565b60006020820190508181036000830152613435816133f9565b9050919050565b7f45524337323155524953746f726167653a2055524920717565727920666f722060008201527f6e6f6e6578697374656e7420746f6b656e000000000000000000000000000000602082015250565b60006134986031836121a7565b91506134a38261343c565b604082019050919050565b600060208201905081810360008301526134c78161348b565b9050919050565b60006134da8285612cb8565b91506134e68284612cb8565b91508190509392505050565b600081519050919050565b600082825260208201905092915050565b6000613519826134f2565b61352381856134fd565b93506135338185602086016121b8565b61353c816121eb565b840191505092915050565b600060808201905061355c60008301876122e2565b61356960208301866122e2565b6135766040830185612172565b8181036060830152613588818461350e565b905095945050505050565b6000815190506135a2816120d9565b92915050565b6000602082840312156135be576135bd6120a3565b5b60006135cc84828501613593565b91505092915050565b7f4552433732314d657461646174613a2055524920717565727920666f72206e6f60008201527f6e6578697374656e7420746f6b656e0000000000000000000000000000000000602082015250565b6000613631602f836121a7565b915061363c826135d5565b604082019050919050565b6000602082019050818103600083015261366081613624565b9050919050565b7f4552433732313a206d696e7420746f20746865207a65726f2061646472657373600082015250565b600061369d6020836121a7565b91506136a882613667565b602082019050919050565b600060208201905081810360008301526136cc81613690565b9050919050565b7f4552433732313a20746f6b656e20616c7265616479206d696e74656400000000600082015250565b6000613709601c836121a7565b9150613714826136d3565b602082019050919050565b60006020820190508181036000830152613738816136fc565b905091905056fea2646970667358221220514aee6d9dfb9ea8f8f0921083d154611dbe8dcc229ed8e09c58f5f3404beefd64736f6c634300080e0033",
  "linkReferences": {},
  "deployedLinkReferences": {}
}