{
  "_format": "hh-sol-artifact-1",
  "contractName": "ShapesNFT",
  "sourceName": "contracts/ShapesNFT.sol",
  "abi": [
    {
      "inputs": [
        {
          "internalType": "string",
          "name": "_contentId",
          "type": "string"
        }
      ],
      "stateMutability": "nonpayable",
      "type": "constructor"
    },
    {
      "anonymous": false,
      "inputs": [
        {
          "indexed": true,
          "internalType": "address",
          "name": "owner",
          "type": "address"
        },
        {
          "indexed": true,
          "internalType": "address",
          "name": "approved",
          "type": "address"
        },
        {
          "indexed": true,
          "internalType": "uint256",
          "name": "tokenId",
          "type": "uint256"
        }
      ],
      "name": "Approval",
      "type": "event"
    },
    {
      "anonymous": false,
      "inputs": [
        {
          "indexed": true,
          "internalType": "address",
          "name": "owner",
          "type": "address"
        },
        {
          "indexed": true,
          "internalType": "address",
          "name": "operator",
          "type": "address"
        },
        {
          "indexed": false,
          "internalType": "bool",
          "name": "approved",
          "type": "bool"
        }
      ],
      "name": "ApprovalForAll",
      "type": "event"
    },
    {
      "anonymous": false,
      "inputs": [
        {
          "indexed": false,
          "internalType": "address",
          "name": "sender",
          "type": "address"
        },
        {
          "indexed": false,
          "internalType": "uint256",
          "name": "tokenId",
          "type": "uint256"
        }
      ],
      "name": "NewNFTMinted",
      "type": "event"
    },
    {
      "anonymous": false,
      "inputs": [
        {
          "indexed": true,
          "internalType": "address",
          "name": "previousOwner",
          "type": "address"
        },
        {
          "indexed": true,
          "internalType": "address",
          "name": "newOwner",
          "type": "address"
        }
      ],
      "name": "OwnershipTransferred",
      "type": "event"
    },
    {
      "anonymous": false,
      "inputs": [
        {
          "indexed": true,
          "internalType": "address",
          "name": "from",
          "type": "address"
        },
        {
          "indexed": true,
          "internalType": "address",
          "name": "to",
          "type": "address"
        },
        {
          "indexed": true,
          "internalType": "uint256",
          "name": "tokenId",
          "type": "uint256"
        }
      ],
      "name": "Transfer",
      "type": "event"
    },
    {
      "inputs": [
        {
          "internalType": "address",
          "name": "to",
          "type": "address"
        },
        {
          "internalType": "uint256",
          "name": "tokenId",
          "type": "uint256"
        }
      ],
      "name": "approve",
      "outputs": [],
      "stateMutability": "nonpayable",
      "type": "function"
    },
    {
      "inputs": [
        {
          "internalType": "address",
          "name": "owner",
          "type": "address"
        }
      ],
      "name": "balanceOf",
      "outputs": [
        {
          "internalType": "uint256",
          "name": "",
          "type": "uint256"
        }
      ],
      "stateMutability": "view",
      "type": "function"
    },
    {
      "inputs": [],
      "name": "contentId",
      "outputs": [
        {
          "internalType": "string",
          "name": "",
          "type": "string"
        }
      ],
      "stateMutability": "view",
      "type": "function"
    },
    {
      "inputs": [],
      "name": "count",
      "outputs": [
        {
          "internalType": "uint256",
          "name": "",
          "type": "uint256"
        }
      ],
      "stateMutability": "view",
      "type": "function"
    },
    {
      "inputs": [
        {
          "internalType": "uint256",
          "name": "tokenId",
          "type": "uint256"
        }
      ],
      "name": "getApproved",
      "outputs": [
        {
          "internalType": "address",
          "name": "",
          "type": "address"
        }
      ],
      "stateMutability": "view",
      "type": "function"
    },
    {
      "inputs": [
        {
          "internalType": "address",
          "name": "owner",
          "type": "address"
        },
        {
          "internalType": "address",
          "name": "operator",
          "type": "address"
        }
      ],
      "name": "isApprovedForAll",
      "outputs": [
        {
          "internalType": "bool",
          "name": "",
          "type": "bool"
        }
      ],
      "stateMutability": "view",
      "type": "function"
    },
    {
      "inputs": [],
      "name": "name",
      "outputs": [
        {
          "internalType": "string",
          "name": "",
          "type": "string"
        }
      ],
      "stateMutability": "view",
      "type": "function"
    },
    {
      "inputs": [],
      "name": "owner",
      "outputs": [
        {
          "internalType": "address",
          "name": "",
          "type": "address"
        }
      ],
      "stateMutability": "view",
      "type": "function"
    },
    {
      "inputs": [
        {
          "internalType": "uint256",
          "name": "tokenId",
          "type": "uint256"
        }
      ],
      "name": "ownerOf",
      "outputs": [
        {
          "internalType": "address",
          "name": "",
          "type": "address"
        }
      ],
      "stateMutability": "view",
      "type": "function"
    },
    {
      "inputs": [],
      "name": "payToMint",
      "outputs": [
        {
          "internalType": "uint256",
          "name": "",
          "type": "uint256"
        }
      ],
      "stateMutability": "payable",
      "type": "function"
    },
    {
      "inputs": [],
      "name": "renounceOwnership",
      "outputs": [],
      "stateMutability": "nonpayable",
      "type": "function"
    },
    {
      "inputs": [
        {
          "internalType": "address",
          "name": "to",
          "type": "address"
        },
        {
          "internalType": "string",
          "name": "uri",
          "type": "string"
        }
      ],
      "name": "safeMint",
      "outputs": [],
      "stateMutability": "nonpayable",
      "type": "function"
    },
    {
      "inputs": [
        {
          "internalType": "address",
          "name": "from",
          "type": "address"
        },
        {
          "internalType": "address",
          "name": "to",
          "type": "address"
        },
        {
          "internalType": "uint256",
          "name": "tokenId",
          "type": "uint256"
        }
      ],
      "name": "safeTransferFrom",
      "outputs": [],
      "stateMutability": "nonpayable",
      "type": "function"
    },
    {
      "inputs": [
        {
          "internalType": "address",
          "name": "from",
          "type": "address"
        },
        {
          "internalType": "address",
          "name": "to",
          "type": "address"
        },
        {
          "internalType": "uint256",
          "name": "tokenId",
          "type": "uint256"
        },
        {
          "internalType": "bytes",
          "name": "_data",
          "type": "bytes"
        }
      ],
      "name": "safeTransferFrom",
      "outputs": [],
      "stateMutability": "nonpayable",
      "type": "function"
    },
    {
      "inputs": [
        {
          "internalType": "address",
          "name": "operator",
          "type": "address"
        },
        {
          "internalType": "bool",
          "name": "approved",
          "type": "bool"
        }
      ],
      "name": "setApprovalForAll",
      "outputs": [],
      "stateMutability": "nonpayable",
      "type": "function"
    },
    {
      "inputs": [
        {
          "internalType": "bytes4",
          "name": "interfaceId",
          "type": "bytes4"
        }
      ],
      "name": "supportsInterface",
      "outputs": [
        {
          "internalType": "bool",
          "name": "",
          "type": "bool"
        }
      ],
      "stateMutability": "view",
      "type": "function"
    },
    {
      "inputs": [],
      "name": "symbol",
      "outputs": [
        {
          "internalType": "string",
          "name": "",
          "type": "string"
        }
      ],
      "stateMutability": "view",
      "type": "function"
    },
    {
      "inputs": [
        {
          "internalType": "uint256",
          "name": "tokenId",
          "type": "uint256"
        }
      ],
      "name": "tokenURI",
      "outputs": [
        {
          "internalType": "string",
          "name": "",
          "type": "string"
        }
      ],
      "stateMutability": "view",
      "type": "function"
    },
    {
      "inputs": [
        {
          "internalType": "address",
          "name": "from",
          "type": "address"
        },
        {
          "internalType": "address",
          "name": "to",
          "type": "address"
        },
        {
          "internalType": "uint256",
          "name": "tokenId",
          "type": "uint256"
        }
      ],
      "name": "transferFrom",
      "outputs": [],
      "stateMutability": "nonpayable",
      "type": "function"
    },
    {
      "inputs": [
        {
          "internalType": "address",
          "name": "newOwner",
          "type": "address"
        }
      ],
      "name": "transferOwnership",
      "outputs": [],
      "stateMutability": "nonpayable",
      "type": "function"
    },
    {
      "inputs": [
        {
          "internalType": "string",
          "name": "_newContentId",
          "type": "string"
        }
      ],
      "name": "updateContentId",
      "outputs": [],
      "stateMutability": "nonpayable",
      "type": "function"
    }
  ],
  "bytecode": "0x608060405260405180602001604052806000815250600990805190602001906200002b9291906200020d565b503480156200003957600080fd5b5060405162003c4538038062003c4583398181016040528101906200005f91906200032f565b6040518060400160405280600981526020017f5368617065734e465400000000000000000000000000000000000000000000008152506040518060400160405280600381526020017f53485000000000000000000000000000000000000000000000000000000000008152508160009080519060200190620000e39291906200020d565b508060019080519060200190620000fc9291906200020d565b5050506200011f620001136200013f60201b60201c565b6200014760201b60201c565b8060099080519060200190620001379291906200020d565b5050620004e4565b600033905090565b6000600760009054906101000a900473ffffffffffffffffffffffffffffffffffffffff16905081600760006101000a81548173ffffffffffffffffffffffffffffffffffffffff021916908373ffffffffffffffffffffffffffffffffffffffff1602179055508173ffffffffffffffffffffffffffffffffffffffff168173ffffffffffffffffffffffffffffffffffffffff167f8be0079c531659141344cd1fd0a4f28419497f9722a3daafe3b4186f6b6457e060405160405180910390a35050565b8280546200021b9062000409565b90600052602060002090601f0160209004810192826200023f57600085556200028b565b82601f106200025a57805160ff19168380011785556200028b565b828001600101855582156200028b579182015b828111156200028a5782518255916020019190600101906200026d565b5b5090506200029a91906200029e565b5090565b5b80821115620002b95760008160009055506001016200029f565b5090565b6000620002d4620002ce846200039d565b62000374565b905082815260208101848484011115620002ed57600080fd5b620002fa848285620003d3565b509392505050565b600082601f8301126200031457600080fd5b815162000326848260208601620002bd565b91505092915050565b6000602082840312156200034257600080fd5b600082015167ffffffffffffffff8111156200035d57600080fd5b6200036b8482850162000302565b91505092915050565b60006200038062000393565b90506200038e82826200043f565b919050565b6000604051905090565b600067ffffffffffffffff821115620003bb57620003ba620004a4565b5b620003c682620004d3565b9050602081019050919050565b60005b83811015620003f3578082015181840152602081019050620003d6565b8381111562000403576000848401525b50505050565b600060028204905060018216806200042257607f821691505b6020821081141562000439576200043862000475565b5b50919050565b6200044a82620004d3565b810181811067ffffffffffffffff821117156200046c576200046b620004a4565b5b80604052505050565b7f4e487b7100000000000000000000000000000000000000000000000000000000600052602260045260246000fd5b7f4e487b7100000000000000000000000000000000000000000000000000000000600052604160045260246000fd5b6000601f19601f8301169050919050565b61375180620004f46000396000f3fe60806040526004361061012a5760003560e01c8063715018a6116100ab578063b88d4fde1161006f578063b88d4fde146103d1578063c87b56dd146103fa578063d204c45e14610437578063d97aa97714610460578063e985e9c51461048b578063f2fde38b146104c85761012a565b8063715018a6146103125780638da5cb5b1461032957806395d89b4114610354578063a22cb4651461037f578063aed677f8146103a85761012a565b806323b872dd116100f257806323b872dd1461022857806342842e0e14610251578063509c71801461027a5780636352211e1461029857806370a08231146102d55761012a565b806301ffc9a71461012f57806306661abd1461016c57806306fdde0314610197578063081812fc146101c2578063095ea7b3146101ff575b600080fd5b34801561013b57600080fd5b5061015660048036038101906101519190612432565b6104f1565b6040516101639190612a2d565b60405180910390f35b34801561017857600080fd5b506101816105d3565b60405161018e9190612cea565b60405180910390f35b3480156101a357600080fd5b506101ac6105e4565b6040516101b99190612a48565b60405180910390f35b3480156101ce57600080fd5b506101e960048036038101906101e491906124c5565b610676565b6040516101f6919061299d565b60405180910390f35b34801561020b57600080fd5b50610226600480360381019061022191906123f6565b6106fb565b005b34801561023457600080fd5b5061024f600480360381019061024a919061229c565b610813565b005b34801561025d57600080fd5b506102786004803603810190610273919061229c565b610873565b005b610282610893565b60405161028f9190612cea565b60405180910390f35b3480156102a457600080fd5b506102bf60048036038101906102ba91906124c5565b6109c9565b6040516102cc919061299d565b60405180910390f35b3480156102e157600080fd5b506102fc60048036038101906102f79190612237565b610a7b565b6040516103099190612cea565b60405180910390f35b34801561031e57600080fd5b50610327610b33565b005b34801561033557600080fd5b5061033e610bbb565b60405161034b919061299d565b60405180910390f35b34801561036057600080fd5b50610369610be5565b6040516103769190612a48565b60405180910390f35b34801561038b57600080fd5b506103a660048036038101906103a19190612366565b610c77565b005b3480156103b457600080fd5b506103cf60048036038101906103ca9190612484565b610c8d565b005b3480156103dd57600080fd5b506103f860048036038101906103f391906122eb565b610d23565b005b34801561040657600080fd5b50610421600480360381019061041c91906124c5565b610d85565b60405161042e9190612a48565b60405180910390f35b34801561044357600080fd5b5061045e600480360381019061045991906123a2565b610d97565b005b34801561046c57600080fd5b50610475610e44565b6040516104829190612a48565b60405180910390f35b34801561049757600080fd5b506104b260048036038101906104ad9190612260565b610ed2565b6040516104bf9190612a2d565b60405180910390f35b3480156104d457600080fd5b506104ef60048036038101906104ea9190612237565b610f66565b005b60007f80ac58cd000000000000000000000000000000000000000000000000000000007bffffffffffffffffffffffffffffffffffffffffffffffffffffffff1916827bffffffffffffffffffffffffffffffffffffffffffffffffffffffff191614806105bc57507f5b5e139f000000000000000000000000000000000000000000000000000000007bffffffffffffffffffffffffffffffffffffffffffffffffffffffff1916827bffffffffffffffffffffffffffffffffffffffffffffffffffffffff1916145b806105cc57506105cb8261105e565b5b9050919050565b60006105df60086110c8565b905090565b6060600080546105f390612f55565b80601f016020809104026020016040519081016040528092919081815260200182805461061f90612f55565b801561066c5780601f106106415761010080835404028352916020019161066c565b820191906000526020600020905b81548152906001019060200180831161064f57829003601f168201915b5050505050905090565b6000610681826110d6565b6106c0576040517f08c379a00000000000000000000000000000000000000000000000000000000081526004016106b790612c0a565b60405180910390fd5b6004600083815260200190815260200160002060009054906101000a900473ffffffffffffffffffffffffffffffffffffffff169050919050565b6000610706826109c9565b90508073ffffffffffffffffffffffffffffffffffffffff168373ffffffffffffffffffffffffffffffffffffffff161415610777576040517f08c379a000000000000000000000000000000000000000000000000000000000815260040161076e90612c8a565b60405180910390fd5b8073ffffffffffffffffffffffffffffffffffffffff16610796611142565b73ffffffffffffffffffffffffffffffffffffffff1614806107c557506107c4816107bf611142565b610ed2565b5b610804576040517f08c379a00000000000000000000000000000000000000000000000000000000081526004016107fb90612b4a565b60405180910390fd5b61080e838361114a565b505050565b61082461081e611142565b82611203565b610863576040517f08c379a000000000000000000000000000000000000000000000000000000000815260040161085a90612caa565b60405180910390fd5b61086e8383836112e1565b505050565b61088e83838360405180602001604052806000815250610d23565b505050565b6000806108a060086110c8565b905066b1a2bc2ec500003410156108ec576040517f08c379a00000000000000000000000000000000000000000000000000000000081526004016108e390612cca565b60405180910390fd5b6032811061092f576040517f08c379a000000000000000000000000000000000000000000000000000000000815260040161092690612c6a565b60405180910390fd5b6109396008611548565b6000600961095260018461094d9190612de4565b61155e565b604051602001610963929190612963565b604051602081830303815290604052905061097e338361170b565b6109888282611729565b7f1c05098ed1ff38e6238d2b1b04b2c7977d4c94ce651bda6473f9dba8dbf01da033836040516109b9929190612a04565b60405180910390a1819250505090565b6000806002600084815260200190815260200160002060009054906101000a900473ffffffffffffffffffffffffffffffffffffffff169050600073ffffffffffffffffffffffffffffffffffffffff168173ffffffffffffffffffffffffffffffffffffffff161415610a72576040517f08c379a0000000000000000000000000000000000000000000000000000000008152600401610a6990612b8a565b60405180910390fd5b80915050919050565b60008073ffffffffffffffffffffffffffffffffffffffff168273ffffffffffffffffffffffffffffffffffffffff161415610aec576040517f08c379a0000000000000000000000000000000000000000000000000000000008152600401610ae390612b6a565b60405180910390fd5b600360008373ffffffffffffffffffffffffffffffffffffffff1673ffffffffffffffffffffffffffffffffffffffff168152602001908152602001600020549050919050565b610b3b611142565b73ffffffffffffffffffffffffffffffffffffffff16610b59610bbb565b73ffffffffffffffffffffffffffffffffffffffff1614610baf576040517f08c379a0000000000000000000000000000000000000000000000000000000008152600401610ba690612c2a565b60405180910390fd5b610bb9600061179d565b565b6000600760009054906101000a900473ffffffffffffffffffffffffffffffffffffffff16905090565b606060018054610bf490612f55565b80601f0160208091040260200160405190810160405280929190818152602001828054610c2090612f55565b8015610c6d5780601f10610c4257610100808354040283529160200191610c6d565b820191906000526020600020905b815481529060010190602001808311610c5057829003601f168201915b5050505050905090565b610c89610c82611142565b8383611863565b5050565b610c95611142565b73ffffffffffffffffffffffffffffffffffffffff16610cb3610bbb565b73ffffffffffffffffffffffffffffffffffffffff1614610d09576040517f08c379a0000000000000000000000000000000000000000000000000000000008152600401610d0090612c2a565b60405180910390fd5b8060099080519060200190610d1f92919061205b565b5050565b610d34610d2e611142565b83611203565b610d73576040517f08c379a0000000000000000000000000000000000000000000000000000000008152600401610d6a90612caa565b60405180910390fd5b610d7f848484846119d0565b50505050565b6060610d9082611a2c565b9050919050565b610d9f611142565b73ffffffffffffffffffffffffffffffffffffffff16610dbd610bbb565b73ffffffffffffffffffffffffffffffffffffffff1614610e13576040517f08c379a0000000000000000000000000000000000000000000000000000000008152600401610e0a90612c2a565b60405180910390fd5b6000610e1f60086110c8565b9050610e2b6008611548565b610e35838261170b565b610e3f8183611729565b505050565b60098054610e5190612f55565b80601f0160208091040260200160405190810160405280929190818152602001828054610e7d90612f55565b8015610eca5780601f10610e9f57610100808354040283529160200191610eca565b820191906000526020600020905b815481529060010190602001808311610ead57829003601f168201915b505050505081565b6000600560008473ffffffffffffffffffffffffffffffffffffffff1673ffffffffffffffffffffffffffffffffffffffff16815260200190815260200160002060008373ffffffffffffffffffffffffffffffffffffffff1673ffffffffffffffffffffffffffffffffffffffff16815260200190815260200160002060009054906101000a900460ff16905092915050565b610f6e611142565b73ffffffffffffffffffffffffffffffffffffffff16610f8c610bbb565b73ffffffffffffffffffffffffffffffffffffffff1614610fe2576040517f08c379a0000000000000000000000000000000000000000000000000000000008152600401610fd990612c2a565b60405180910390fd5b600073ffffffffffffffffffffffffffffffffffffffff168173ffffffffffffffffffffffffffffffffffffffff161415611052576040517f08c379a000000000000000000000000000000000000000000000000000000000815260040161104990612a8a565b60405180910390fd5b61105b8161179d565b50565b60007f01ffc9a7000000000000000000000000000000000000000000000000000000007bffffffffffffffffffffffffffffffffffffffffffffffffffffffff1916827bffffffffffffffffffffffffffffffffffffffffffffffffffffffff1916149050919050565b600081600001549050919050565b60008073ffffffffffffffffffffffffffffffffffffffff166002600084815260200190815260200160002060009054906101000a900473ffffffffffffffffffffffffffffffffffffffff1673ffffffffffffffffffffffffffffffffffffffff1614159050919050565b600033905090565b816004600083815260200190815260200160002060006101000a81548173ffffffffffffffffffffffffffffffffffffffff021916908373ffffffffffffffffffffffffffffffffffffffff160217905550808273ffffffffffffffffffffffffffffffffffffffff166111bd836109c9565b73ffffffffffffffffffffffffffffffffffffffff167f8c5be1e5ebec7d5bd14f71427d1e84f3dd0314c0f7b2291e5b200ac8c7c3b92560405160405180910390a45050565b600061120e826110d6565b61124d576040517f08c379a000000000000000000000000000000000000000000000000000000000815260040161124490612b2a565b60405180910390fd5b6000611258836109c9565b90508073ffffffffffffffffffffffffffffffffffffffff168473ffffffffffffffffffffffffffffffffffffffff1614806112c757508373ffffffffffffffffffffffffffffffffffffffff166112af84610676565b73ffffffffffffffffffffffffffffffffffffffff16145b806112d857506112d78185610ed2565b5b91505092915050565b8273ffffffffffffffffffffffffffffffffffffffff16611301826109c9565b73ffffffffffffffffffffffffffffffffffffffff1614611357576040517f08c379a000000000000000000000000000000000000000000000000000000000815260040161134e90612aaa565b60405180910390fd5b600073ffffffffffffffffffffffffffffffffffffffff168273ffffffffffffffffffffffffffffffffffffffff1614156113c7576040517f08c379a00000000000000000000000000000000000000000000000000000000081526004016113be90612aea565b60405180910390fd5b6113d2838383611b7e565b6113dd60008261114a565b6001600360008573ffffffffffffffffffffffffffffffffffffffff1673ffffffffffffffffffffffffffffffffffffffff168152602001908152602001600020600082825461142d9190612e6b565b925050819055506001600360008473ffffffffffffffffffffffffffffffffffffffff1673ffffffffffffffffffffffffffffffffffffffff16815260200190815260200160002060008282546114849190612de4565b92505081905550816002600083815260200190815260200160002060006101000a81548173ffffffffffffffffffffffffffffffffffffffff021916908373ffffffffffffffffffffffffffffffffffffffff160217905550808273ffffffffffffffffffffffffffffffffffffffff168473ffffffffffffffffffffffffffffffffffffffff167fddf252ad1be2c89b69c2b068fc378daa952ba7f163c4a11628f55a4df523b3ef60405160405180910390a4611543838383611b83565b505050565b6001816000016000828254019250508190555050565b606060008214156115a6576040518060400160405280600181526020017f30000000000000000000000000000000000000000000000000000000000000008152509050611706565b600082905060005b600082146115d85780806115c190612fb8565b915050600a826115d19190612e3a565b91506115ae565b60008167ffffffffffffffff81111561161a577f4e487b7100000000000000000000000000000000000000000000000000000000600052604160045260246000fd5b6040519080825280601f01601f19166020018201604052801561164c5781602001600182028036833780820191505090505b5090505b600085146116ff576001826116659190612e6b565b9150600a856116749190613001565b60306116809190612de4565b60f81b8183815181106116bc577f4e487b7100000000000000000000000000000000000000000000000000000000600052603260045260246000fd5b60200101907effffffffffffffffffffffffffffffffffffffffffffffffffffffffffffff1916908160001a905350600a856116f89190612e3a565b9450611650565b8093505050505b919050565b611725828260405180602001604052806000815250611b88565b5050565b611732826110d6565b611771576040517f08c379a000000000000000000000000000000000000000000000000000000000815260040161176890612baa565b60405180910390fd5b8060066000848152602001908152602001600020908051906020019061179892919061205b565b505050565b6000600760009054906101000a900473ffffffffffffffffffffffffffffffffffffffff16905081600760006101000a81548173ffffffffffffffffffffffffffffffffffffffff021916908373ffffffffffffffffffffffffffffffffffffffff1602179055508173ffffffffffffffffffffffffffffffffffffffff168173ffffffffffffffffffffffffffffffffffffffff167f8be0079c531659141344cd1fd0a4f28419497f9722a3daafe3b4186f6b6457e060405160405180910390a35050565b8173ffffffffffffffffffffffffffffffffffffffff168373ffffffffffffffffffffffffffffffffffffffff1614156118d2576040517f08c379a00000000000000000000000000000000000000000000000000000000081526004016118c990612b0a565b60405180910390fd5b80600560008573ffffffffffffffffffffffffffffffffffffffff1673ffffffffffffffffffffffffffffffffffffffff16815260200190815260200160002060008473ffffffffffffffffffffffffffffffffffffffff1673ffffffffffffffffffffffffffffffffffffffff16815260200190815260200160002060006101000a81548160ff0219169083151502179055508173ffffffffffffffffffffffffffffffffffffffff168373ffffffffffffffffffffffffffffffffffffffff167f17307eab39ab6107e8899845ad3d59bd9653f200f220920489ca2b5937696c31836040516119c39190612a2d565b60405180910390a3505050565b6119db8484846112e1565b6119e784848484611be3565b611a26576040517f08c379a0000000000000000000000000000000000000000000000000000000008152600401611a1d90612a6a565b60405180910390fd5b50505050565b6060611a37826110d6565b611a76576040517f08c379a0000000000000000000000000000000000000000000000000000000008152600401611a6d90612bea565b60405180910390fd5b6000600660008481526020019081526020016000208054611a9690612f55565b80601f0160208091040260200160405190810160405280929190818152602001828054611ac290612f55565b8015611b0f5780601f10611ae457610100808354040283529160200191611b0f565b820191906000526020600020905b815481529060010190602001808311611af257829003601f168201915b505050505090506000611b20611d7a565b9050600081511415611b36578192505050611b79565b600082511115611b6b578082604051602001611b5392919061293f565b60405160208183030381529060405292505050611b79565b611b7484611db7565b925050505b919050565b505050565b505050565b611b928383611e5e565b611b9f6000848484611be3565b611bde576040517f08c379a0000000000000000000000000000000000000000000000000000000008152600401611bd590612a6a565b60405180910390fd5b505050565b6000611c048473ffffffffffffffffffffffffffffffffffffffff16612038565b15611d6d578373ffffffffffffffffffffffffffffffffffffffff1663150b7a02611c2d611142565b8786866040518563ffffffff1660e01b8152600401611c4f94939291906129b8565b602060405180830381600087803b158015611c6957600080fd5b505af1925050508015611c9a57506040513d601f19601f82011682018060405250810190611c97919061245b565b60015b611d1d573d8060008114611cca576040519150601f19603f3d011682016040523d82523d6000602084013e611ccf565b606091505b50600081511415611d15576040517f08c379a0000000000000000000000000000000000000000000000000000000008152600401611d0c90612a6a565b60405180910390fd5b805181602001fd5b63150b7a0260e01b7bffffffffffffffffffffffffffffffffffffffffffffffffffffffff1916817bffffffffffffffffffffffffffffffffffffffffffffffffffffffff191614915050611d72565b600190505b949350505050565b60606040518060400160405280600781526020017f697066733a2f2f00000000000000000000000000000000000000000000000000815250905090565b6060611dc2826110d6565b611e01576040517f08c379a0000000000000000000000000000000000000000000000000000000008152600401611df890612c4a565b60405180910390fd5b6000611e0b611d7a565b90506000815111611e2b5760405180602001604052806000815250611e56565b80611e358461155e565b604051602001611e4692919061293f565b6040516020818303038152906040525b915050919050565b600073ffffffffffffffffffffffffffffffffffffffff168273ffffffffffffffffffffffffffffffffffffffff161415611ece576040517f08c379a0000000000000000000000000000000000000000000000000000000008152600401611ec590612bca565b60405180910390fd5b611ed7816110d6565b15611f17576040517f08c379a0000000000000000000000000000000000000000000000000000000008152600401611f0e90612aca565b60405180910390fd5b611f2360008383611b7e565b6001600360008473ffffffffffffffffffffffffffffffffffffffff1673ffffffffffffffffffffffffffffffffffffffff1681526020019081526020016000206000828254611f739190612de4565b92505081905550816002600083815260200190815260200160002060006101000a81548173ffffffffffffffffffffffffffffffffffffffff021916908373ffffffffffffffffffffffffffffffffffffffff160217905550808273ffffffffffffffffffffffffffffffffffffffff16600073ffffffffffffffffffffffffffffffffffffffff167fddf252ad1be2c89b69c2b068fc378daa952ba7f163c4a11628f55a4df523b3ef60405160405180910390a461203460008383611b83565b5050565b6000808273ffffffffffffffffffffffffffffffffffffffff163b119050919050565b82805461206790612f55565b90600052602060002090601f01602090048101928261208957600085556120d0565b82601f106120a257805160ff19168380011785556120d0565b828001600101855582156120d0579182015b828111156120cf5782518255916020019190600101906120b4565b5b5090506120dd91906120e1565b5090565b5b808211156120fa5760008160009055506001016120e2565b5090565b600061211161210c84612d2a565b612d05565b90508281526020810184848401111561212957600080fd5b612134848285612f13565b509392505050565b600061214f61214a84612d5b565b612d05565b90508281526020810184848401111561216757600080fd5b612172848285612f13565b509392505050565b600081359050612189816136bf565b92915050565b60008135905061219e816136d6565b92915050565b6000813590506121b3816136ed565b92915050565b6000815190506121c8816136ed565b92915050565b600082601f8301126121df57600080fd5b81356121ef8482602086016120fe565b91505092915050565b600082601f83011261220957600080fd5b813561221984826020860161213c565b91505092915050565b60008135905061223181613704565b92915050565b60006020828403121561224957600080fd5b60006122578482850161217a565b91505092915050565b6000806040838503121561227357600080fd5b60006122818582860161217a565b92505060206122928582860161217a565b9150509250929050565b6000806000606084860312156122b157600080fd5b60006122bf8682870161217a565b93505060206122d08682870161217a565b92505060406122e186828701612222565b9150509250925092565b6000806000806080858703121561230157600080fd5b600061230f8782880161217a565b94505060206123208782880161217a565b935050604061233187828801612222565b925050606085013567ffffffffffffffff81111561234e57600080fd5b61235a878288016121ce565b91505092959194509250565b6000806040838503121561237957600080fd5b60006123878582860161217a565b92505060206123988582860161218f565b9150509250929050565b600080604083850312156123b557600080fd5b60006123c38582860161217a565b925050602083013567ffffffffffffffff8111156123e057600080fd5b6123ec858286016121f8565b9150509250929050565b6000806040838503121561240957600080fd5b60006124178582860161217a565b925050602061242885828601612222565b9150509250929050565b60006020828403121561244457600080fd5b6000612452848285016121a4565b91505092915050565b60006020828403121561246d57600080fd5b600061247b848285016121b9565b91505092915050565b60006020828403121561249657600080fd5b600082013567ffffffffffffffff8111156124b057600080fd5b6124bc848285016121f8565b91505092915050565b6000602082840312156124d757600080fd5b60006124e584828501612222565b91505092915050565b6124f781612e9f565b82525050565b61250681612eb1565b82525050565b600061251782612da1565b6125218185612db7565b9350612531818560208601612f22565b61253a816130ee565b840191505092915050565b600061255082612dac565b61255a8185612dc8565b935061256a818560208601612f22565b612573816130ee565b840191505092915050565b600061258982612dac565b6125938185612dd9565b93506125a3818560208601612f22565b80840191505092915050565b600081546125bc81612f55565b6125c68186612dd9565b945060018216600081146125e157600181146125f257612625565b60ff19831686528186019350612625565b6125fb85612d8c565b60005b8381101561261d578154818901526001820191506020810190506125fe565b838801955050505b50505092915050565b600061263b603283612dc8565b9150612646826130ff565b604082019050919050565b600061265e602683612dc8565b91506126698261314e565b604082019050919050565b6000612681602583612dc8565b915061268c8261319d565b604082019050919050565b60006126a4601c83612dc8565b91506126af826131ec565b602082019050919050565b60006126c7602483612dc8565b91506126d282613215565b604082019050919050565b60006126ea601983612dc8565b91506126f582613264565b602082019050919050565b600061270d602c83612dc8565b91506127188261328d565b604082019050919050565b6000612730603883612dc8565b915061273b826132dc565b604082019050919050565b6000612753602a83612dc8565b915061275e8261332b565b604082019050919050565b6000612776602983612dc8565b91506127818261337a565b604082019050919050565b6000612799602e83612dc8565b91506127a4826133c9565b604082019050919050565b60006127bc602083612dc8565b91506127c782613418565b602082019050919050565b60006127df603183612dc8565b91506127ea82613441565b604082019050919050565b6000612802602c83612dc8565b915061280d82613490565b604082019050919050565b6000612825600583612dd9565b9150612830826134df565b600582019050919050565b6000612848602083612dc8565b915061285382613508565b602082019050919050565b600061286b602f83612dc8565b915061287682613531565b604082019050919050565b600061288e602483612dc8565b915061289982613580565b604082019050919050565b60006128b1602183612dc8565b91506128bc826135cf565b604082019050919050565b60006128d4603183612dc8565b91506128df8261361e565b604082019050919050565b60006128f7600183612dd9565b91506129028261366d565b600182019050919050565b600061291a600f83612dc8565b915061292582613696565b602082019050919050565b61293981612f09565b82525050565b600061294b828561257e565b9150612957828461257e565b91508190509392505050565b600061296f82856125af565b915061297a826128ea565b9150612986828461257e565b915061299182612818565b91508190509392505050565b60006020820190506129b260008301846124ee565b92915050565b60006080820190506129cd60008301876124ee565b6129da60208301866124ee565b6129e76040830185612930565b81810360608301526129f9818461250c565b905095945050505050565b6000604082019050612a1960008301856124ee565b612a266020830184612930565b9392505050565b6000602082019050612a4260008301846124fd565b92915050565b60006020820190508181036000830152612a628184612545565b905092915050565b60006020820190508181036000830152612a838161262e565b9050919050565b60006020820190508181036000830152612aa381612651565b9050919050565b60006020820190508181036000830152612ac381612674565b9050919050565b60006020820190508181036000830152612ae381612697565b9050919050565b60006020820190508181036000830152612b03816126ba565b9050919050565b60006020820190508181036000830152612b23816126dd565b9050919050565b60006020820190508181036000830152612b4381612700565b9050919050565b60006020820190508181036000830152612b6381612723565b9050919050565b60006020820190508181036000830152612b8381612746565b9050919050565b60006020820190508181036000830152612ba381612769565b9050919050565b60006020820190508181036000830152612bc38161278c565b9050919050565b60006020820190508181036000830152612be3816127af565b9050919050565b60006020820190508181036000830152612c03816127d2565b9050919050565b60006020820190508181036000830152612c23816127f5565b9050919050565b60006020820190508181036000830152612c438161283b565b9050919050565b60006020820190508181036000830152612c638161285e565b9050919050565b60006020820190508181036000830152612c8381612881565b9050919050565b60006020820190508181036000830152612ca3816128a4565b9050919050565b60006020820190508181036000830152612cc3816128c7565b9050919050565b60006020820190508181036000830152612ce38161290d565b9050919050565b6000602082019050612cff6000830184612930565b92915050565b6000612d0f612d20565b9050612d1b8282612f87565b919050565b6000604051905090565b600067ffffffffffffffff821115612d4557612d446130bf565b5b612d4e826130ee565b9050602081019050919050565b600067ffffffffffffffff821115612d7657612d756130bf565b5b612d7f826130ee565b9050602081019050919050565b60008190508160005260206000209050919050565b600081519050919050565b600081519050919050565b600082825260208201905092915050565b600082825260208201905092915050565b600081905092915050565b6000612def82612f09565b9150612dfa83612f09565b9250827fffffffffffffffffffffffffffffffffffffffffffffffffffffffffffffffff03821115612e2f57612e2e613032565b5b828201905092915050565b6000612e4582612f09565b9150612e5083612f09565b925082612e6057612e5f613061565b5b828204905092915050565b6000612e7682612f09565b9150612e8183612f09565b925082821015612e9457612e93613032565b5b828203905092915050565b6000612eaa82612ee9565b9050919050565b60008115159050919050565b60007fffffffff0000000000000000000000000000000000000000000000000000000082169050919050565b600073ffffffffffffffffffffffffffffffffffffffff82169050919050565b6000819050919050565b82818337600083830152505050565b60005b83811015612f40578082015181840152602081019050612f25565b83811115612f4f576000848401525b50505050565b60006002820490506001821680612f6d57607f821691505b60208210811415612f8157612f80613090565b5b50919050565b612f90826130ee565b810181811067ffffffffffffffff82111715612faf57612fae6130bf565b5b80604052505050565b6000612fc382612f09565b91507fffffffffffffffffffffffffffffffffffffffffffffffffffffffffffffffff821415612ff657612ff5613032565b5b600182019050919050565b600061300c82612f09565b915061301783612f09565b92508261302757613026613061565b5b828206905092915050565b7f4e487b7100000000000000000000000000000000000000000000000000000000600052601160045260246000fd5b7f4e487b7100000000000000000000000000000000000000000000000000000000600052601260045260246000fd5b7f4e487b7100000000000000000000000000000000000000000000000000000000600052602260045260246000fd5b7f4e487b7100000000000000000000000000000000000000000000000000000000600052604160045260246000fd5b6000601f19601f8301169050919050565b7f4552433732313a207472616e7366657220746f206e6f6e20455243373231526560008201527f63656976657220696d706c656d656e7465720000000000000000000000000000602082015250565b7f4f776e61626c653a206e6577206f776e657220697320746865207a65726f206160008201527f6464726573730000000000000000000000000000000000000000000000000000602082015250565b7f4552433732313a207472616e736665722066726f6d20696e636f72726563742060008201527f6f776e6572000000000000000000000000000000000000000000000000000000602082015250565b7f4552433732313a20746f6b656e20616c7265616479206d696e74656400000000600082015250565b7f4552433732313a207472616e7366657220746f20746865207a65726f2061646460008201527f7265737300000000000000000000000000000000000000000000000000000000602082015250565b7f4552433732313a20617070726f766520746f2063616c6c657200000000000000600082015250565b7f4552433732313a206f70657261746f7220717565727920666f72206e6f6e657860008201527f697374656e7420746f6b656e0000000000000000000000000000000000000000602082015250565b7f4552433732313a20617070726f76652063616c6c6572206973206e6f74206f7760008201527f6e6572206e6f7220617070726f76656420666f7220616c6c0000000000000000602082015250565b7f4552433732313a2062616c616e636520717565727920666f7220746865207a6560008201527f726f206164647265737300000000000000000000000000000000000000000000602082015250565b7f4552433732313a206f776e657220717565727920666f72206e6f6e657869737460008201527f656e7420746f6b656e0000000000000000000000000000000000000000000000602082015250565b7f45524337323155524953746f726167653a2055524920736574206f66206e6f6e60008201527f6578697374656e7420746f6b656e000000000000000000000000000000000000602082015250565b7f4552433732313a206d696e7420746f20746865207a65726f2061646472657373600082015250565b7f45524337323155524953746f726167653a2055524920717565727920666f722060008201527f6e6f6e6578697374656e7420746f6b656e000000000000000000000000000000602082015250565b7f4552433732313a20617070726f76656420717565727920666f72206e6f6e657860008201527f697374656e7420746f6b656e0000000000000000000000000000000000000000602082015250565b7f2e6a736f6e000000000000000000000000000000000000000000000000000000600082015250565b7f4f776e61626c653a2063616c6c6572206973206e6f7420746865206f776e6572600082015250565b7f4552433732314d657461646174613a2055524920717565727920666f72206e6f60008201527f6e6578697374656e7420746f6b656e0000000000000000000000000000000000602082015250565b7f416c6c203530204e465473206861766520616c7265616479206265656e206d6960008201527f6e74656400000000000000000000000000000000000000000000000000000000602082015250565b7f4552433732313a20617070726f76616c20746f2063757272656e74206f776e6560008201527f7200000000000000000000000000000000000000000000000000000000000000602082015250565b7f4552433732313a207472616e736665722063616c6c6572206973206e6f74206f60008201527f776e6572206e6f7220617070726f766564000000000000000000000000000000602082015250565b7f2f00000000000000000000000000000000000000000000000000000000000000600082015250565b7f4e65656420746f20706179207570210000000000000000000000000000000000600082015250565b6136c881612e9f565b81146136d357600080fd5b50565b6136df81612eb1565b81146136ea57600080fd5b50565b6136f681612ebd565b811461370157600080fd5b50565b61370d81612f09565b811461371857600080fd5b5056fea2646970667358221220e69a885535ae1fc4eaf73e546421393525e123226489ff4446d0ec77f1e4011f64736f6c63430008040033",
  "linkReferences": {},
  "deployedLinkReferences": {}
}